:100000000C942A000C9447000C9447000C94470071
:100010000C9447000C9447000C9447000C94470044
:100020000C9447000C9447000C9420040C94470057
:100030000C9447000C9447000C9447000C94470024
:100040000C9447000C9447000C9447000C94470014
:100050000C94470011241FBECFE5D8E0DEBFCDBF12
:1000600010E0A0E6B0E0E2E6FCE002C005900D92F0
:10007000A236B107D9F710E0A2E6B0E001C01D92A8
:10008000A536B107E1F70E94F0020C942F060C94FC
:1000900000003E9A3F9A379A319A329A0895369ADA
:1000A00086B186FDFDCF84B190E045B1342F20E0CC
:1000B000822B932B0895843409F471C0853448F45D
:1000C000823499F1833408F04DC0813409F083C043
:1000D0000FC0823651F1833620F4813609F07BC09F
:1000E00007C0833609F43EC0843609F074C057C097
:1000F000413069F42AB381E090E0AC0102C0440FC2
:10010000551F6A95E2F7BA01622B6ABB08952AB3BC
:1001100081E090E0AC0102C0440F551F6A95E2F700
:10012000BA01609562236ABB0895413069F427B330
:1001300081E090E0AC0102C0440F551F6A95E2F7E0
:10014000BA01622B67BB089527B381E090E0AC0150
:1001500002C0440F551F6A95E2F7BA016095622309
:1001600067BB0895413069F424B381E090E0AC01AD
:1001700002C0440F551F6A95E2F7BA01622B64BBB7
:10018000089524B381E090E0AC0102C0440F551FF4
:100190006A95E2F7BA016095622364BB0895413025
:1001A00069F421B381E090E0AC0102C0440F551F17
:1001B0006A95E2F7BA01622B61BB089521B381E031
:1001C00090E0AC0102C0440F551F6A95E2F7BA01F6
:1001D0006095622361BB0895843409F471C085344D
:1001E00048F4823499F1833408F04DC0813409F029
:1001F00083C00FC0823651F1833620F4813609F076
:100200007BC007C0833609F43EC0843609F074C051
:1002100057C0413069F42BB381E090E0AC0102C0DB
:10022000440F551F6A95E2F7BA01622B6BBB089524
:100230002BB381E090E0AC0102C0440F551F6A95DA
:10024000E2F7BA01609562236BBB0895413069F40F
:1002500028B381E090E0AC0102C0440F551F6A95BD
:10026000E2F7BA01622B68BB089528B381E090E001
:10027000AC0102C0440F551F6A95E2F7BA016095C0
:10028000622368BB0895413069F425B381E090E0B2
:10029000AC0102C0440F551F6A95E2F7BA01622B08
:1002A00065BB089525B381E090E0AC0102C0440F26
:1002B000551F6A95E2F7BA016095622365BB089500
:1002C000413069F422B381E090E0AC0102C0440FF8
:1002D000551F6A95E2F7BA01622B62BB089522B3FB
:1002E00081E090E0AC0102C0440F551F6A95E2F72F
:1002F000BA016095622362BB0895843409F43DC05D
:10030000853440F48234F9F0833450F5813409F0B7
:1003100040C00CC08236B9F0833618F48136C9F576
:1003200005C08336E9F08436A1F527C02BB381E000
:1003300090E0AC0102C0440F551F6A95E2F7BA0184
:1003400062276BBB089528B381E090E0AC0102C046
:10035000440F551F6A95E2F7BA01622768BB0895FA
:1003600025B381E090E0AC0102C0440F551F6A95AF
:10037000E2F7BA01622765BB089522B381E090E0FD
:10038000AC0102C0440F551F6A95E2F7BA0162271B
:1003900062BB08958434B1F1853438F48234E1F0DD
:1003A000833428F58134C1F50CC08236A9F0833638
:1003B00018F4813689F505C08336C9F0843661F5B5
:1003C00021C029B330E0C90102C0959587956A958F
:1003D000E2F7982F917020C026B330E0C90102C027
:1003E000959587956A95E2F7982F917015C023B37C
:1003F00030E0C90102C0959587956A95E2F7982F7C
:1004000091700AC020B330E0C90102C0959587956C
:100410006A95E2F7982F9170892F08958434D9F066
:10042000853438F4823499F0833498F48134A1F41B
:100430000CC0823661F0833618F4813669F405C049
:10044000833639F0843641F406C06ABB089567BB31
:10045000089564BB089561BB08958434D9F0853450
:1004600038F4823499F0833498F48134A1F40CC0C8
:10047000823661F0833618F4813669F405C083361C
:1004800039F0843641F406C06BBB089568BB08950B
:1004900065BB089562BB0895843409F1853438F44E
:1004A0008234A9F08334B8F48134E1F40CC082368C
:1004B00071F0833618F48136A9F405C0833659F0FB
:1004C000843681F40CC08BB380958BBB089588B3C0
:1004D000809588BB089585B3809585BB089582B3C8
:1004E000809582BB08958434D9F0853438F4823401
:1004F00099F0833498F48134A1F40CC0823661F011
:10050000833618F4813669F405C0833639F08436B1
:1005100041F406C099B305C096B303C093B301C0BC
:1005200090B3892F08950E94EC000895CF93DF9334
:10053000C82FD62F462F417060E00E94EC004D2F4F
:10054000469541708C2F61E00E94EC004D2F46953E
:10055000469541708C2F62E00E94EC00D695D695AE
:10056000D6954D2F41708C2F63E00E94EC00DF91F7
:10057000CF910895CF93DF93C82FD62F462F417088
:1005800064E00E94EC004D2F469541708C2F65E091
:100590000E94EC004D2F4695469541708C2F66E0E9
:1005A0000E94EC00D695D695D6954D2F41708C2F94
:1005B00067E00E94EC00DF91CF91089541E00E9436
:1005C0005B00089541E00E94EC00089540E00E9425
:1005D000EC0008950E947D0108950E94CA010895CB
:1005E0000E9499040E94490084E462E00E94DE02B5
:1005F00084E463E00E94DE0284E464E00E94DE02A0
:1006000084E465E00E94DE0284E466E00E94DE028B
:1006100083E460E00E94DE028FEF0E94AD048D341F
:1006200031F0843509F49DC08134B1F7BDC08FEF3E
:100630000E94AD04823361F1833318F4813361F792
:1006400006C0833309F447C0843331F767C08FEFA6
:100650000E94AD04823519F08735F1F607C084E4B5
:1006600062E00E94ED020E94AD04D6CF8FEF0E949F
:10067000AD04813319F0823379F605C084E462E079
:100680000E94E202C9CF84E462E00E94E602C4CF85
:100690008FEF0E94AD04823521F0873509F0BCCF81
:1006A00007C084E463E00E94ED020E94AD04B4CF71
:1006B0008FEF0E94AD04813321F0823309F0ACCF7B
:1006C00005C084E463E00E94E202A6CF84E463E014
:1006D0000E94E602A1CF8FEF0E94AD04823521F087
:1006E000873509F099CF07C084E464E00E94ED02E9
:1006F0000E94AD0491CF8FEF0E94AD04813321F0B1
:10070000823309F089CF05C084E464E00E94E202EC
:1007100083CF84E464E00E94E6027ECF8FEF0E94E4
:10072000AD04823521F0873509F076CF07C084E427
:1007300065E00E94ED020E94AD046ECF8FEF0E9433
:10074000AD04813321F0823309F066CF05C084E423
:1007500065E00E94E20260CF84E465E00E94E60268
:100760005BCF8FEF0E94AD04823521F0873509F011
:1007700053CF07C084E466E00E94ED020E94AD04FE
:100780004BCF8FEF0E94AD04813321F0823309F00B
:1007900043CF05C084E466E00E94E2023DCF84E4DA
:1007A00066E00E94E60238CF8FEF0E94AD048334EA
:1007B00021F1833509F030CF8FEF0E94AD04282F4F
:1007C00030E0C901880F991F9C01220F331F220FAF
:1007D000331F820F931F90936100809360008FEF0F
:1007E0000E94AD042091600030916100280F311DFE
:1007F00030936100209360000FCF8FEF0E94AD0413
:10080000823521F0873509F007CF07C083E460E027
:100810000E94ED020E94AD04FFCE8FEF0E94AD0456
:10082000813321F0823309F0F7CE03C00E94CA045D
:10083000F3CE0E94100583E460E00E94E602ECCE55
:100840001F920F920FB60F9211242F933F934F9345
:100850005F936F937F938F939F93AF93BF93EF9328
:10086000FF93809162008F5F8093620080916200AD
:100870008A30B1F5109262000E944F00BC0180E006
:1008800090E00E943E0520E030E040E85EE30E94F8
:10089000A4050E941205DC01CB01909364008093B3
:1008A000630020916300309164008091600090911A
:1008B00061008217930728F483E460E00E94E2025B
:1008C0000FC020916300309164008091600090918E
:1008D00061002817390720F483E460E00E94E602F3
:1008E000FF91EF91BF91AF919F918F917F916F9108
:1008F0005F914F913F912F910F900FBE0F901F90DE
:10090000189582E464E041E00E945B0082E465E0C7
:1009100041E00E945B0082E467E041E00E945B00EE
:100920006C9A689A6E9A82E464E041E00E94EC005E
:10093000089582E466E041E00E945B006E9A0895AB
:10094000CF93C82F82E464E040E00E94EC00CFB96E
:10095000779BFECF8FB1CF9108958FB9779BFECF54
:100960008FB10895CF93DF93EC018881882379F0CC
:1009700021960E94A0048FEF90E7A2E08150904062
:10098000A040E1F700C000008991882391F7DF9132
:10099000CF91089583B7886083BF8EE48CBF83B7FF
:1009A000816083BF83B7846083BF789489B7826096
:1009B00089BF0895BB9A83B7886083BF80E48CBFEA
:1009C00083B7816083BF83B7846083BF83B780614F
:1009D00083BF0895BB9A83B7806483BF83B7886061
:1009E00083BF80E48CBF83B7816083BF83B784609B
:1009F00083BF83B7806283BF0895BB9A83B7806447
:100A000083BF80E48CBF83B7816083BF83B784607A
:100A100083BF83B7806183BF83B7806283BF08953C
:100A200013BE089570D088F09F5790F0B92F992782
:100A3000B751A0F0D1F0660F771F881F991F1AF0E9
:100A4000BA95C9F712C0B13081F077D0B1E00895FE
:100A500074C0672F782F8827B85F39F0B93FCCF37F
:100A6000869577956795B395D9F73EF490958095DF
:100A7000709561957F4F8F4F9F4F0895E89409C0FF
:100A800097FB3EF490958095709561957F4F8F4FC1
:100A90009F4F9923A9F0F92F96E9BB279395F695D7
:100AA000879577956795B795F111F8CFFAF4BB0F55
:100AB00011F460FF1BC06F5F7F4F8F4F9F4F16C0B9
:100AC000882311F096E911C0772321F09EE8872F43
:100AD000762F05C0662371F096E8862F70E060E0FF
:100AE0002AF09A95660F771F881FDAF7880F969578
:100AF000879597F9089557FD9058440F551F59F061
:100B00005F3F71F04795880F97FB991F61F09F3FFA
:100B100079F087950895121613061406551FF2CF23
:100B20004695F1DF08C0161617061806991FF1CF73
:100B300086957105610508940895E894BB2766279A
:100B40007727CB0197F908950BD078C069D028F0AA
:100B50006ED018F0952309F05AC05FC01124EECF73
:100B6000CADFA0F3959FD1F3950F50E0551F629F08
:100B7000F001729FBB27F00DB11D639FAA27F00DF6
:100B8000B11DAA1F649F6627B00DA11D661F829F1D
:100B90002227B00DA11D621F739FB00DA11D621F02
:100BA000839FA00D611D221F749F3327A00D611D1F
:100BB000231F849F600D211D822F762F6A2F112401
:100BC0009F5750408AF0E1F088234AF0EE0FFF1F54
:100BD000BB1F661F771F881F91505040A9F79E3F8B
:100BE000510570F014C0AACF5F3FECF3983EDCF3E0
:100BF000869577956795B795F795E7959F5FC1F7C8
:100C0000FE2B880F911D9695879597F9089597F972
:100C10009F6780E870E060E008959FEF80EC0895A2
:100C200000240A94161617061806090608950024CB
:100C30000A9412161306140605060895092E039445
:100C4000000C11F4882352F0BB0F40F4BF2B11F4B9
:100C500060FF04C06F5F7F4F8F4F9F4F0895F894E0
:020C6000FFCFC4
:020C6200FFFF92
:00000001FF
