:100000000C942A000C9447000C9447000C94470071
:100010000C9447000C9447000C9447000C94470044
:100020000C9447000C9447000C94590C0C94470016
:100030000C9447000C9447000C9447000C94470024
:100040000C9447000C9447000C9447000C94470014
:100050000C94470011241FBECFE5D8E0DEBFCDBF12
:1000600012E0A0E6B0E0E2EDFBE102C005900D92E7
:10007000A23DB107D9F712E0A2EDB2E001C01D9296
:10008000A93DB107E1F70E94BA030C94E70D0C9467
:100090000000843409F471C0853448F4823499F145
:1000A000833408F04DC0813409F083C00FC082361C
:1000B00051F1833620F4813609F07BC007C08336C6
:1000C00009F43EC0843609F074C057C0413069F469
:1000D0002AB381E090E0AC0102C0440F551F6A953D
:1000E000E2F7BA01622B6ABB08952AB381E090E07F
:1000F000AC0102C0440F551F6A95E2F7BA01609542
:1001000062236ABB0895413069F427B381E090E02F
:10011000AC0102C0440F551F6A95E2F7BA01622B89
:1001200067BB089527B381E090E0AC0102C0440FA3
:10013000551F6A95E2F7BA016095622367BB08957F
:10014000413069F424B381E090E0AC0102C0440F77
:10015000551F6A95E2F7BA01622B64BB089524B378
:1001600081E090E0AC0102C0440F551F6A95E2F7B0
:10017000BA016095622364BB0895413069F421B3EC
:1001800081E090E0AC0102C0440F551F6A95E2F790
:10019000BA01622B61BB089521B381E090E0AC010C
:1001A00002C0440F551F6A95E2F7BA0160956223B9
:1001B00061BB0895843409F471C0853448F48234F5
:1001C00099F1833408F04DC0813409F083C00FC029
:1001D000823651F1833620F4813609F07BC007C0A6
:1001E000833609F43EC0843609F074C057C04130EC
:1001F00069F42BB381E090E0AC0102C0440F551FBD
:100200006A95E2F7BA01622B6BBB08952BB381E0CC
:1002100090E0AC0102C0440F551F6A95E2F7BA01A5
:10022000609562236BBB0895413069F428B381E087
:1002300090E0AC0102C0440F551F6A95E2F7BA0185
:10024000622B68BB089528B381E090E0AC0102C046
:10025000440F551F6A95E2F7BA016095622368BBA7
:100260000895413069F425B381E090E0AC0102C00B
:10027000440F551F6A95E2F7BA01622B65BB0895DA
:1002800025B381E090E0AC0102C0440F551F6A9590
:10029000E2F7BA016095622365BB0895413069F4C5
:1002A00022B381E090E0AC0102C0440F551F6A9573
:1002B000E2F7BA01622B62BB089522B381E090E0BD
:1002C000AC0102C0440F551F6A95E2F7BA01609570
:1002D000622362BB0895843409F43DC0853440F440
:1002E0008234F9F0833450F5813409F040C00CC0F9
:1002F0008236B9F0833618F48136C9F505C08336E5
:10030000E9F08436A1F527C02BB381E090E0AC0181
:1003100002C0440F551F6A95E2F7BA0162276BBB12
:10032000089528B381E090E0AC0102C0440F551F4E
:100330006A95E2F7BA01622768BB089525B381E0A8
:1003400090E0AC0102C0440F551F6A95E2F7BA0174
:10035000622765BB089522B381E090E0AC0102C042
:10036000440F551F6A95E2F7BA01622762BB0895F0
:100370008434B1F1853438F48234E1F0833428F5E3
:100380008134C1F50CC08236A9F0833618F4813669
:1003900089F505C08336C9F0843661F521C029B3DB
:1003A00030E0C90102C0959587956A95E2F7982FCC
:1003B000917020C026B330E0C90102C095958795A1
:1003C0006A95E2F7982F917015C023B330E0C90108
:1003D00002C0959587956A95E2F7982F91700AC0AB
:1003E00020B330E0C90102C0959587956A95E2F780
:1003F000982F9170892F08958434D9F0853438F47A
:10040000823499F0833498F48134A1F40CC082369C
:1004100061F0833618F4813669F405C0833639F00B
:10042000843641F406C06ABB089567BB089564BB77
:10043000089561BB08958434D9F0853438F482344A
:1004400099F0833498F48134A1F40CC0823661F0C1
:10045000833618F4813669F405C0833639F0843662
:1004600041F406C06BBB089568BB089565BB089551
:1004700062BB0895843409F1853438F48234A9F0DC
:100480008334B8F48134E1F40CC0823671F08336E1
:1004900018F48136A9F405C0833659F0843681F406
:1004A0000CC08BB380958BBB089588B3809588BBB7
:1004B000089585B3809585BB089582B3809582BBEE
:1004C00008958434D9F0853438F4823499F0833433
:1004D00098F48134A1F40CC0823661F0833618F4AC
:1004E000813669F405C0833639F0843641F406C09C
:1004F00099B305C096B303C093B301C090B3892FDD
:1005000008950E94DA000895CF93DF93C82FD62F65
:10051000462F417060E00E94DA004D2F46954170F1
:100520008C2F61E00E94DA004D2F46954695417070
:100530008C2F62E00E94DA00D695D695D6954D2F85
:1005400041708C2F63E00E94DA00DF91CF91089513
:10055000CF93DF93C82FD62F462F417064E00E94BF
:10056000DA004D2F469541708C2F65E00E94DA002D
:100570004D2F4695469541708C2F66E00E94DA001B
:10058000D695D695D6954D2F41708C2F67E00E9459
:10059000DA00DF91CF9108958EBB9FBB6DBBE29ACD
:1005A000E19A8CB381FDFDCF08958EBB9FBBE09A8D
:1005B0008DB3089582E460E041E00E94DA008FE9A3
:1005C0009FE00197F1F700C0000082E460E040E0A6
:1005D0000E94DA008FE99FE00197F1F700C0000068
:1005E0000895CF93C82F82E461E040E00E94DA00D2
:1005F0006C2F62956F7081E40E94A8020E94DA025B
:1006000081E46C2F0E94A8020E94DA028FEC97E02E
:100610000197F1F700C00000CF910895CF93C82F44
:1006200082E461E041E00E94DA006C2F62956F7015
:1006300081E40E94A8020E94DA0281E46C2F0E94E9
:10064000A8020E94DA028FEC97E00197F1F700C050
:100650000000CF91089581E00E94F1028FE496E4BA
:100660000197F1F700C00000089582E00E94F102B6
:100670008FE496E40197F1F700C0000008958FE73A
:1006800099EAA3E081509040A040E1F700C000004B
:1006900081E464E041E00E94490081E465E041E0DA
:1006A0000E94490081E466E041E00E94490081E443
:1006B00067E041E00E94490082E460E041E00E947E
:1006C000490082E461E041E00E94490082E462E086
:1006D00041E00E94490082E462E040E00E94DA00CA
:1006E0000E94350388E20E94F1028EE00E94F1022E
:1006F0000E942B0386E00E94F1020895CF93DF93BE
:10070000EC018881882331F021960E940E038991A3
:100710008823D9F7DF91CF910895282F21502230D7
:1007200070F4613170F4662371F0813019F4962F02
:1007300091580AC0823041F4962F915405C090E838
:1007400003C090E801C090E8892F0E94F10208954B
:1007500041E00E944900089541E00E94DA000895B6
:1007600040E00E94DA0008950E946B0108950E9403
:10077000B8010895CF93DF93CDB7DEB729970FB6B1
:10078000F894DEBF0FBECDBF0E94E60C83E460E0AC
:100790000E94A80383E461E00E94A80383E462E06E
:1007A0000E94A8030E943F0380E690E00E947E031F
:1007B00082E061E00E948D0381E790E00E947E0369
:1007C0008FEF91E1AAE781509040A040E1F700C08F
:1007D000000060E875E280E090E00E94750D0F2E49
:1007E000FDEA2F2EF1E03F2EF02DC22C3E820F2E7F
:1007F000F2E84F2EF1E05F2EF02D4F82588680E018
:1008000091E00E94D5028F3F09F0AAC00E942B03FD
:100810008DE790E00E947E0382E061E00E948D03FC
:100820008DE890E00E947E038FEF99E6A8E1815069
:100830009040A040E1F700C000000E942B0382E935
:1008400090E00E947E0382E061E00E948D0381EAD5
:1008500090E00E947E0301E011E00E949D0DF82EC1
:100860000E940E03C8016F2D0E94CC028FEF94E30B
:10087000ACE081509040A040E1F700C00000602F44
:10088000655F82E00E948D038AE20E940E030F5F83
:100890001F4F91E00530190701F70E942B038DEAE5
:1008A00090E00E947E0382E061E00E948D0389EB6C
:1008B00090E00E947E038FEF99E6A8E1815090407E
:1008C000A040E1F700C000000E942B038FEB90E0F6
:1008D0000E947E0382E061E00E948D038EEC90E036
:1008E0000E947E0305E011E00E949D0DF82E0E94FB
:1008F0000E03C8016F2D0E94CC028FEF94E3ACE091
:1009000081509040A040E1F700C00000602F695F77
:1009100082E00E948D038AE20E940E030F5F1F4F48
:1009200091E00930190701F70E942B038DEA90E04E
:100930000E947E0382E061E00E948D0389EB90E0DB
:100940000E947E038FEF99E6A8E181509040A0407D
:10095000E1F700C0000080E091E060E00E94CC027E
:1009600080E190E00E94D5028F3F09F465C083E4E6
:1009700060E00E94AC030E942B038AED90E00E948D
:100980007E038FEF99E6A8E181509040A040E1F707
:1009900000C000000E942B0388EE90E00E947E03BE
:1009A00082E061E00E948D0388EF90E00E947E0368
:1009B00003E10F2EFAE0FF2EF02D8FEF99E6A8E16C
:1009C00081509040A040E1F700C000000A3088F05C
:1009D00082E061E00E948D03802F6F2D0E94B90D8F
:1009E000192F805D0E940E03812F805D0E940E03EF
:1009F0000FC082E061E00E948D03802F6F2D0E9466
:100A0000B90D892F805D0E940E0380E20E940E03C3
:100A1000015099F68FEF99E6A8E181509040A040EF
:100A2000E1F700C0000083E460E00E94B00380E1D1
:100A300090E06FEF0E94CC020E942B0383E091E0D4
:100A40000E947E0382E061E00E948D038FE091E0CE
:100A50000E947E030E949D0D813309F064C481E0F1
:100A60008093D7020F2EF3E0DF2EF02D0F2EF0E251
:100A7000AF2EF1E0BF2EF02D0F2EF9E68F2EF2E013
:100A80009F2EF02D4AC40E942B03C5010E947E03B5
:100A900082E061E00E948D038BE291E00E947E0380
:100AA0008E010F5F1F4F0F2EFCE0FF2EF02DC801AF
:100AB0001F2D7C010E949D0D082F0E940E03D7015F
:100AC0000D937D018FEF94E3ACE081509040A04006
:100AD000E1F700C0000082E0612F0E948D038AE2EE
:100AE0000E940E031F5F103129F7198181E091E008
:100AF0000E94D502181709F0EBC31A8182E091E039
:100B00000E94D502181709F0E3C31B8183E091E02E
:100B10000E94D502181709F0DBC31C8184E091E024
:100B20000E94D502181709F0D3C383E461E00E9444
:100B3000AC030E942B0387E391E00E947E0382E0D6
:100B400061E00E948D03C5010E947E038FEF99E64C
:100B5000A8E181509040A040E1F700C0000081E48E
:100B60008093D2020E942F0D81E08093D502DD8216
:100B7000C986A6C30E942B0386E491E00E947E03EF
:100B800082E061E00E948D0387E591E00E947E0390
:100B90000E949D0D9091D502992309F47FC3982F4F
:100BA0009153933008F05CC1823309F479C08333E8
:100BB00009F4E3C0813309F083C38DE40E94050D7D
:100BC00081E30E94050D82E50E94050D8FEF0E94D2
:100BD000050D682E81E08093D80204E711E00F2E06
:100BE000F7E6EF2EF1E0FF2EF02D0F2EF3E9CF2EDA
:100BF000F1E0DF2EF02D4EC00E942B0391E069162C
:100C000021F4C7010E947E0303C0C8010E947E0335
:100C100082E061E00E948D03C2010E947E030E9477
:100C20009D0D9091D8029923A9F1982F905393305C
:100C300008F51092D802813319F0823359F50DC0AE
:100C40008DE40E94050D81E30E94050D87E50E9459
:100C5000050D81E30E94050D1DC08DE40E94050D68
:100C600081E30E94050D87E50E94050D82E30E9445
:100C7000050D10C08F3F71F00E942B03C6010E942A
:100C80007E038FEF99E6A8E181509040A040E1F704
:100C900000C000008091D802813009F4ADCF10C3AC
:100CA0008DE40E94050D82E30E94050D82E50E94FD
:100CB000050D8FEF0E94050DD82E81E08093D8029C
:100CC00000EA11E00F2EF3E9EF2EF1E0FF2EF02DF8
:100CD0004EC00E942B0391E0D91621F4C8010E9456
:100CE0007E0303C0C1010E947E0382E061E00E9496
:100CF0008D03C2010E947E030E949D0D9091D80237
:100D00009923A9F1982F9053933008F51092D802A7
:100D1000813319F0823359F50DC08DE40E94050D21
:100D200082E30E94050D87E50E94050D81E30E9484
:100D3000050D1DC08DE40E94050D82E30E94050D86
:100D400087E50E94050D82E30E94050D10C08F3FCC
:100D500071F00E942B03C7010E947E038FEF99E67A
:100D6000A8E181509040A040E1F700C000008091D0
:100D7000D802813009F4ADCFA3C28DE40E94050DE5
:100D800083E30E94050D82E50E94050D8FEF0E940E
:100D9000050D682E81E08093D80208EC11E00F2E3B
:100DA000FBEBEF2EF1E0FF2EF02D0F2EF3E9CF2E0F
:100DB000F1E0DF2EF02D4EC00E942B0391E069166A
:100DC00021F4C7010E947E0303C0C8010E947E0374
:100DD00082E061E00E948D03C2010E947E030E94B6
:100DE0009D0D9091D8029923A9F1982F905393309B
:100DF00008F51092D802813319F0823359F50DC0ED
:100E00008DE40E94050D83E30E94050D87E50E9495
:100E1000050D81E30E94050D1DC08DE40E94050DA6
:100E200083E30E94050D87E50E94050D82E30E9481
:100E3000050D10C08F3F71F00E942B03C6010E9468
:100E40007E038FEF99E6A8E181509040A040E1F742
:100E500000C000008091D802813009F4ADCF30C2CB
:100E6000843309F01CC20E942B0386ED91E00E949E
:100E70007E0382E061E00E948D0387EE91E00E9494
:100E80007E030E949D0D9091D502992309F418C20A
:100E9000982F9153933008F0EDC1823309F479C053
:100EA000833309F4D6C0813309F00AC28DE40E946D
:100EB000050D84E30E94050D82E50E94050D8FEF6C
:100EC0000E94050D682E81E08093D80205E012E0B3
:100ED0000F2EF8EFEF2EF1E0FF2EF02D0F2EF3E99D
:100EE000CF2EF1E0DF2EF02D4EC00E942B0391E0BB
:100EF000691621F4C7010E947E0303C0C8010E9445
:100F00007E0382E061E00E948D03C2010E947E03A5
:100F10000E949D0D9091D8029923A9F1982F90538A
:100F2000933008F51092D802813319F0823359F5C5
:100F30000DC08DE40E94050D84E30E94050D87E538
:100F40000E94050D81E30E94050D1DC08DE40E94E5
:100F5000050D84E30E94050D87E50E94050D82E3DF
:100F60000E94050D10C08F3F71F00E942B03C60137
:100F70000E947E038FEF99E6A8E181509040A04047
:100F8000E1F700C000008091D802813009F4ADCFB4
:100F900097C184E50E94050D82E50E94050D8FEF43
:100FA0000E94050DF82E81E08093D80203E911E03C
:100FB0004AC00E942B0391E0F91629F483E192E0E4
:100FC0000E947E0304C080E292E00E947E0382E0E1
:100FD00061E00E948D03C2010E947E030E949D0D6C
:100FE0009091D802992379F1982F90539330D8F4A7
:100FF0001092D802813319F0823329F50AC084E5B2
:101000000E94050D87E50E94050D81E30E94050DF4
:101010001AC084E50E94050D87E50E94050D82E354
:101020000E94050D10C08F3F71F00E942B03C80174
:101030000E947E038FEF99E6A8E181509040A04086
:10104000E1F700C000008091D802813009F4B1CFEF
:1010500037C181E08093D8020F2EFEE2CF2EF2E05E
:10106000DF2EF02D0F2EFAE36F2EF2E07F2EF02D03
:101070000F2EF3E9EF2EF1E0FF2EF02DF5C00E94C8
:101080002B03C6010E947E0382E061E00E948D0373
:10109000C3010E947E030E949D0D9091D802992366
:1010A00009F4E2C0982F9053933008F0CDC08133FB
:1010B00049F0823309F462C0803309F0D5C0109240
:1010C000D802D2C00E942B038BE492E00E947E03E0
:1010D0008FED0E940E0383E40E940E0381E06BE01B
:1010E0000E948D030E949D0D082F8091D8028823B5
:1010F00009F4BAC0802F0E940E030F3F09F4B4C058
:101100000E949D0D182F8091D802882309F4C7C32F
:10111000812F0E940E038FEF92E5A7E0815090404F
:10112000A040E1F700C000001F3F09F49DC0000F80
:10113000802F880F880F800F8051180F81E40E9444
:10114000050D83E50E94050D812F6AE00E94B90D0F
:10115000192F0E94050D812F0E94050D0E942B035F
:1011600088E592E00E947E038FEF99E6A8E1815026
:101170009040A040E1F700C0000076C081E40E94EA
:10118000050D83E40E94050D82E50E94050D8FEF99
:101190000E94050D182F81E08093D6024FC00E9457
:1011A0002B03113021F4C4010E947E0304C08AE79E
:1011B00092E00E947E0382E061E00E948D038F81B5
:1011C00098850E947E030E949D0D9091D6029923DE
:1011D000A9F1982F9053933008F51092D6028133DD
:1011E00019F0823359F50DC081E40E94050D83E4A6
:1011F0000E94050D87E50E94050D81E30E94050D03
:101200001DC081E40E94050D83E40E94050D87E561
:101210000E94050D82E30E94050D10C08F3F71F002
:101220000E942B03C7010E947E038FEF99E6A8E17D
:1012300081509040A040E1F700C000008091D602AC
:10124000813009F4ACCF10C08F3F71F00E942B03A6
:10125000C7010E947E038FEF99E6A8E1815090407C
:10126000A040E1F700C000008091D802813009F46D
:1012700006CF26C08F3F21F1843311F10E942B034A
:1012800083E991E00E947E038FEF99E6A8E1815007
:101290009040A040E1F700C0000012C08FEF8F3FE8
:1012A00079F00E942B0383E991E00E947E038FEF87
:1012B00099E6A8E181509040A040E1F700C000000D
:1012C0008091D502813009F455CCDD80C98425C0D8
:1012D000DA9441F41092D70280E190E060E00E943D
:1012E000CC021BC00E942B038BE892E00E947E037D
:1012F00082E061E00E948D038AE992E00E947E0311
:101300008D2D805D0E940E038FEF99E6A8E181503C
:101310009040A040E1F700C000008091D7028130EA
:1013200009F4B1CB6CCA823309F0A8C281E0809382
:10133000D7020F2EF3E0DF2EF02D0F2EF6EAAF2EA0
:10134000F2E0BF2EF02D0F2EF0EA8F2EF1E09F2E4F
:10135000F02D0F2EF8EC6F2EF1E07F2EF02D87C2CE
:101360000E942B03C5010E947E0382E061E00E947F
:101370008D038BE291E00E947E038E010F5F1F4F71
:101380000F2EFCE0FF2EF02DC8011F2D7C010E94C6
:101390009D0D082F0E940E03D7010D937D018FEF45
:1013A00094E3ACE081509040A040E1F700C0000021
:1013B00082E0612F0E948D038AE20E940E031F5F6C
:1013C000103129F7198185E091E00E94D5021817A4
:1013D00009F028C21A8186E091E00E94D502181710
:1013E00009F020C21B8187E091E00E94D502181706
:1013F00009F018C21C8188E091E00E94D5021817FC
:1014000009F010C283E462E00E94AC030E942B0347
:1014100087E391E00E947E0382E061E00E948D03F9
:10142000C5010E947E038FEF99E6A8E181509040AC
:10143000A040E1F700C0000087E48093D2020E9440
:101440002F0D81E08093D502E7C10E942B0386E433
:1014500091E00E947E0382E061E00E948D0381EBB7
:1014600092E00E947E030E949D0D9091D5029923E7
:1014700009F4D2C1982F9153943008F0BCC1823343
:1014800009F47BC0833320F4813309F0C5C107C060
:10149000833309F4DAC0843309F0BEC13EC18DE460
:1014A0000E94050D81E30E94050D82E50E94050D55
:1014B0008FEF0E94050D8D8381E08093D80204E7B1
:1014C00011E00F2EF7E6EF2EF1E0FF2EF02D4FC0CA
:1014D0000E942B039D81913021F4C7010E947E035D
:1014E00003C0C8010E947E0382E061E00E948D0378
:1014F000C2010E947E030E949D0D9091D802992303
:10150000B1F1982F9053933008F51092D80281339F
:1015100019F0823361F50DC08DE40E94050D81E361
:101520000E94050D87E50E94050D81E30E94050DCF
:101530001EC08DE40E94050D81E30E94050D87E524
:101540000E94050D82E30E94050D11C08F3F79F0C6
:101550000E942B0383E991E00E947E038FEF99E6BE
:10156000A8E181509040A040E1F700C000008091C8
:10157000D802813009F4ACCF4FC18DE40E94050D33
:1015800082E30E94050D82E50E94050D8FEF0E9407
:10159000050DF82E81E08093D80203E911E04FC0D9
:1015A0000E942B0391E0F91621F4C4010E947E03EE
:1015B00004C08C2D9E810E947E0382E061E00E9427
:1015C0008D03C2010E947E030E949D0D9091D8025E
:1015D0009923A9F1982F9053933008F51092D802CF
:1015E000813319F0823359F50DC08DE40E94050D49
:1015F00082E30E94050D87E50E94050D81E30E94AC
:10160000050D1DC08DE40E94050D82E30E94050DAD
:1016100087E50E94050D82E30E94050D10C08F3FF3
:1016200071F00E942B03C8010E947E038FEF99E6A0
:10163000A8E181509040A040E1F700C000008091F7
:10164000D802813009F4ACCFE7C08DE40E94050DCB
:1016500083E30E94050D82E50E94050D8FEF0E9435
:10166000050DF82E81E08093D80203E911E04FC008
:101670000E942B0391E0F91629F48BEB91E00E9474
:101680007E0303C0C3010E947E0382E061E00E94EA
:101690008D03C2010E947E030E949D0D9091D8028D
:1016A0009923A9F1982F9053933008F51092D802FE
:1016B000813319F0823359F50DC08DE40E94050D78
:1016C00083E30E94050D87E50E94050D81E30E94DA
:1016D000050D1DC08DE40E94050D83E30E94050DDC
:1016E00087E50E94050D82E30E94050D10C08F3F23
:1016F00071F00E942B03C8010E947E038FEF99E6D0
:10170000A8E181509040A040E1F700C00000809126
:10171000D802813009F4ACCF7FC08DE40E94050D62
:1017200084E30E94050D82E50E94050D8FEF0E9463
:10173000050D8D8381E08093D80208EF11E00F2E14
:10174000F3E9EF2EF1E0FF2EF02D4FC00E942B03A6
:101750009D81913021F4C8010E947E0304C085E080
:1017600092E00E947E0382E061E00E948D03C2014C
:101770000E947E030E949D0D9091D8029923A9F1A9
:10178000982F9053933008F51092D802813319F0B6
:10179000823359F50DC08DE40E94050D84E30E944B
:1017A000050D87E50E94050D81E30E94050D1DC012
:1017B0008DE40E94050D84E30E94050D87E50E94DB
:1017C000050D82E30E94050D10C08F3F71F00E944D
:1017D0002B03C7010E947E038FEF99E6A8E1815099
:1017E0009040A040E1F700C000008091D802813015
:1017F00009F4ACCF11C08F3F79F00E942B0383E92D
:1018000091E00E947E038FEF99E6A8E1815090401D
:10181000A040E1F700C000008091D502813009F4BA
:1018200014CE25C0DA9441F41092D70280E190E002
:1018300060E00E94CC021BC00E942B038BE892E068
:101840000E947E0382E061E00E948D038AE992E0BB
:101850000E947E038D2D805D0E940E038FEF99E61E
:10186000A8E181509040A040E1F700C000008091C5
:10187000D702813009F474CD0C94FF030E942B032E
:1018800083E991E00E947E038FEF99E6A8E1815001
:101890009040A040E1F700C000000C94FF038FEFE0
:1018A00092E5A7E081509040A040E1F700C0000021
:1018B000DBCC1F920F920FB60F9211242F933F9300
:1018C0004F935F936F937F938F939F93AF93BF9348
:1018D000EF93FF938091D3029091D402019690935D
:1018E000D4028093D3028091D202813421F08734D4
:1018F00009F05BC02FC08091D3029091D4022EE2F8
:10190000803E920709F051C083E461E00E94B00379
:101910001092D4021092D3021092D6021092D802E2
:101920001092D5021092D70283B78E7F83BF83B700
:101930008B7F83BF0E942B0382EC92E00E947E0388
:101940008FEF99E6A8E181509040A040E1F700C0F8
:1019500000002BC08091D3029091D402A7E1803780
:101960009A0719F583E462E00E94B0031092D40252
:101970001092D3021092D8021092D5021092D70280
:1019800083B78E7F83BF83B78B7F83BF0E942B0378
:1019900082EC92E00E947E038FEF99E6A8E18150ED
:1019A0009040A040E1F700C00000FF91EF91BF918F
:1019B000AF919F918F917F916F915F914F913F91E7
:1019C0002F910F900FBE0F901F90189582E464E046
:1019D00041E00E94490082E465E041E00E94490044
:1019E00082E467E041E00E9449006C9A689A6E9A2E
:1019F00082E464E041E00E94DA00089582E466E057
:101A000041E00E9449006E9A0895CF93C82F82E466
:101A100064E040E00E94DA00CFB9779BFECF8FB13F
:101A2000CF9108958FB9779BFECF8FB10895CF9353
:101A3000DF93EC018881882379F021960E94050DBF
:101A40008FEF90E7A2E081509040A040E1F700C006
:101A500000008991882391F7DF91CF91089583B792
:101A6000886083BF8EE48CBF83B7816083BF83B7F8
:101A7000846083BF789489B7826089BF0895BB9AD8
:101A800083B7886083BF80E48CBF83B7816083BFE6
:101A900083B7846083BF83B7806183BF0895BB9A97
:101AA00083B7806483BF83B7886083BF80E48CBFC3
:101AB00083B7816083BF83B7846083BF83B780624D
:101AC00083BF0895BB9A83B7806483BF80E48CBFD3
:101AD00083B7816083BF83B7846083BF83B780612E
:101AE00083BF83B7806283BF0895DC01CB01880F79
:101AF000991FAA1FBB1F880F991FAA1FBB1F9C01FC
:101B0000AD01220F331F441F551F220F331F441FE7
:101B1000551F60E072E18AE790E00E94C50D2150F8
:101B2000304030BD29B9539A549A86E880BD089553
:101B30009BB195FFFDCF8CB908955F9BFECF8CB113
:101B40000895CF93DF93EC018881882379F0219663
:101B50000E94980D8FEF90E7A2E081509040A04046
:101B6000E1F700C000008991882391F7DF91CF91C0
:101B70000895991B79E004C0991F961708F0961BE9
:101B8000881F7A95C9F780950895A1E21A2EAA1B9D
:101B9000BB1BFD010DC0AA1FBB1FEE1FFF1FA2171D
:101BA000B307E407F50720F0A21BB30BE40BF50B1A
:101BB000661F771F881F991F1A9469F760957095A3
:101BC000809590959B01AC01BD01CF010895F894DB
:021BD000FFCF45
:101BD20057656C636F6D6520746F20536D6172740D
:101BE20000486F6D652053797374656D004C6F67A3
:101BF200696E20666F722066697273740074696D13
:101C020065005365742041646D696E205061737381
:101C12000041646D696E20506173733A00506173C4
:101C220073776F7264206973007361766564005321
:101C3200657420477565737420506173730047752E
:101C420065737420506173733A004C6F67696E203C
:101C5200626C6F636B6564005472792061676169BD
:101C62006E206166746572003230207365636F6E38
:101C720064730053656C656374204D6F6465003155
:101C82003A41646D696E2020323A4775657374007B
:101C920041646D696E204D6F646500456E746572B6
:101CA20020506173733A00526967687420506173FF
:101CB20073776F726400313A526F6F6D3120203248
:101CC2003A526F6F6D3200333A526F6F6D3320208C
:101CD200343A4D6F726500526F6F6D312020205380
:101CE2003A4F4E00526F6F6D31202020533A4F46CB
:101CF2004600312D4F4E20322D4F464620302D5278
:101D020045540057726F6E672043686F69636500C0
:101D1200526F6F6D32202020533A4F4E00526F6F38
:101D22006D32202020533A4F464600526F6F6D337A
:101D3200202020533A4F4E00526F6F6D33202020E7
:101D4200533A4F464600313A526F6F6D342020208D
:101D52002020323A545600333A41697220436F6E62
:101D6200642E343A52455400526F6F6D3420202055
:101D7200533A4F4E00526F6F6D34202020533A4F2A
:101D82004646005456202020202020533A4F4E0031
:101D92005456202020202020533A4F464600313A04
:101DA2005365742054656D702E00323A436F6E7421
:101DB200726F6C2020303A5245540053657420549F
:101DC200656D702E3A2D2D0054656D7065726174CB
:101DD2007572652053656E740041697220436F6E9F
:101DE200642E202020533A4F4E0041697220436FE7
:101DF2006E642E2020533A4F46460057726F6E672C
:101E02002050617373776F72640054726965732036
:101E12004C6566743A004775657374204D6F64654E
:101E220000333A526F6F6D332020343A526F6F6D28
:101E3200340053657373696F6E2054696D656F75F5
:021E420074002A
:00000001FF
